:100000003BC1000069C1000067C1000065C100007C
:1000100063C1000061C100005FC100005DC100005C
:100020005BC1000059C1000057C1000055C100006C
:1000300053C10000A1C400004FC100004DC1000029
:100040004BC1000049C1000047C1000045C100008C
:1000500043C1000041C100003FC100003DC100009C
:100060003BC100007DC7000037C100006AC7000027
:1000700033C1000031C100002FC100002DC10000BC
:100080002BC1000029C1000027C1000025C10000CC
:1000900023C1000021C100001FC100005FC6000095
:1000A0001BC1000019C1000017C1000015C10000EC
:1000B00013C1000011C100000FC100000DC10000FC
:1000C0000BC1000009C1000007C1000005C100000C
:1000D00003C1000001C10000FFC00000FDC000001E
:1000E000FBC000008B078E078E078E078E078E07DA
:1000F0008E078E07CC068E078E078E078E078E071B
:100100008E078E07CC068E078E078E078E078E070A
:100110008E078E07D3068E078E078E078E078E07F3
:100120008E078E07EA068E078E078E078E078E07CC
:100130008E078E07D3068E078E078E078E078E07D3
:100140008E078E07EF068E078E078E078E078E07A7
:100150008E078E07F4068E078E078E078E078E0792
:100160008E078E0705078E078E078E078E078E0770
:100170008E078E071D078E078E078E078E078E0748
:100180008E078E07F9068E078E078E078E078E075D
:100190008E078E0711078E078E078E078E078E0734
:1001A0008E078E071F078E078E078E078E078E0716
:1001B0008E078E071F078E078E078E078E078E0706
:1001C0008E078E071F078E078E078E078E078E07F6
:1001D0008E078E071F078E078E078E078E078E07E6
:1001E0008E078E0727078E078E078E078E078E07CE
:1001F0008E078E0756078E078E078E078E078E078F
:100200008E078E0727078E078E078E078E078E07AD
:100210008E078E0756078E078E078E078E078E076E
:100220008E078E073D078E078E078E078E078E0777
:100230008E078E0759078E078E078E078E078E074B
:100240008E078E0759078E078E078E078E078E073B
:100250008E078E076E078E078E078E078E078E0716
:100260008E078E0786078E078E078E078E078E07EE
:100270008E078E0786071A0311241FBECFEFD1E227
:10028000DEBFCDBF00E00CBF12E0A0E0B2E0E4E1D1
:10029000F5E100E00BBF02C007900D92A830B10756
:1002A000D9F722E0A8E0B2E001C01D92AD3FB2074D
:1002B000E1F712E0C8E7D2E000E006C022970109AA
:1002C000FE010BBF0E94840AC637D10780E00807F1
:1002D000A9F742D10C94880A93CEAF92BF92CF92E5
:1002E000DF92EF92FF920F931F93CF93DF93CDB7DF
:1002F000DEB72F970FB6F894DEBF0FBECDBFA98231
:10030000BA82CB82DC82ED82FE820F831887298736
:100310003A874B875C876D877E878F87CE010196F2
:100320002AD467E0CE01019653D362E0CE01019654
:100330005ED362E0CE01019650D32F960FB6F894AB
:10034000DEBF0FBECDBFDF91CF911F910F91FF9008
:10035000EF90DF90CF90BF90AF900895AF92BF9293
:10036000CF92DF92EF92FF920F931F9380E091EE76
:1003700049D67894E1D286EB92E06ED6A0902A021C
:10038000B0902B02C0902C02D0902D02E0902E0253
:10039000F0902F0200913002109131022091320230
:1003A000309133024091340250913502609136020F
:1003B000709137028091380290DFA0901B02B090BC
:1003C0001C02C0901D02D0901E02E0901F02F0900F
:1003D00020020091210210912202209123023091EB
:1003E00024024091250250912602609127027091CB
:1003F00028028091290271DF1F910F91FF90EF90E9
:10040000DF90CF90BF90AF9008954F925F926F9220
:100410007F928F929F92AF92BF92CF92DF92EF9294
:10042000FF920F931F93CF93DF93CDB7DEB72F9734
:100430000FB6F894DEBF0FBECDBFA982BA82CB82C1
:10044000DC82ED82FE820F83188729873A874B87EB
:100450005C876D877E878F87582C492C0F2EF8E09C
:100460006F2EF2E07F2EF02D7F926F920F2EFAE02A
:100470008F2EF2E09F2EF02D0F2EFCE0AF2EF2E03B
:10048000BF2EF02D0F2EFEE0CF2EF2E0DF2EF02D4E
:100490000F2EF0E1EF2EF2E0FF2EF02D02E112E040
:1004A00024E132E046E152E068E172E0CE010196DB
:1004B00003D3842D9ED5852D9CD58091190299D585
:1004C0008091180296D58091170293D580911602DB
:1004D00090D5809115028DD5809114028AD5809196
:1004E000130287D58091120284D58091110281D5A3
:1004F000809110027ED580910F027BD580910E02F3
:1005000078D580910D0275D580910C0272D58091BD
:100510000B026FD580910A026CD58091090269D5D2
:10052000F301808166D50F900F902F960FB6F89447
:10053000DEBF0FBECDBFDF91CF911F910F91FF9016
:10054000EF90DF90CF90BF90AF909F908F907F9073
:100550006F905F904F90089501DFFAD16B017C019D
:10056000612C712CC0E0D0E023D58111FDCF28D5BE
:1005700080931A02823781F18437B1F7E9D11B01E8
:100580002C01C616D706E806F90619F0EB01CC19BE
:10059000DD094E01A0902A02B0902B02C0902C02DF
:1005A000D0902D02E0902E02F0902F0200913002A8
:1005B0001091310220913202309133024091340285
:1005C0005091350260913602709137028091380265
:1005D0001CDF72016101C8CFBBD11B012C01C61603
:1005E000D706E806F90619F03B016C187D084301AF
:1005F000A0901B02B0901C02C0901D02D0901E0261
:10060000E0901F02F090200200912102109122023E
:10061000209123023091240240912502509126021C
:10062000609127027091280280912902EEDE72010A
:1006300061019ACF8AE292E0C4D169E68BE192E04F
:10064000C4C12F923F924F925F926F927F928F928E
:100650009F92AF92BF92CF92DF92EF92FF920F9351
:100660001F93CF93DF93CDB7DEB728970FB6F894DB
:10067000DEBF0FBECDBF282E6E834B83590168D1DC
:100680006B017C012B81222309F45BC0812C312C6E
:10069000822F90E09D838C832801612C712C9A839A
:1006A0008983622D86EB92E0ECD46E8186EB92E03A
:1006B00001D586EB92E0EFD4622D86EB92E0E1D497
:1006C000912C4C815D81481959094032510514F033
:1006D00040E250E0622D86EB92E0C7D40EC0F501F7
:1006E000E30DF11D37FCFA95F887EF8386EB92E076
:1006F0000AD5EF81F8858083339486EB92E0FDD4B0
:10070000882379F00115110551F322D1DC01CB01C9
:100710008C199D09AE09BF0984159505A605B70575
:10072000F0F286EB92E0B7D489819A81813291050B
:1007300014F080E290E0880EFB818F1608F4B1CFB0
:1007400001C0312C01151105D1F002D1DC01CB0122
:100750008C199D09AE09BF0920E030E08017910790
:10076000A207B30760F0232D332727FD30954B8177
:10077000842F90E02817390714F433243A94832DFA
:1007800028960FB6F894DEBF0FBECDBFDF91CF9194
:100790001F910F91FF90EF90DF90CF90BF90AF909F
:1007A0009F908F907F906F905F904F903F902F9091
:1007B00008950F931F9389019A0141E042DF1F9131
:1007C0000F910895FF920F931F93CF93DF93C62F3E
:1007D000142FF22E032F682F86EB92E052D46C2F49
:1007E00086EB92E067D4112381F0CF2DD02F1150EA
:1007F000CE01810F911D8C010F5F1F4F699186EB18
:1008000092E058D4C017D107C9F786EB92E043D4E1
:1008100081E0DF91CF911F910F91FF900895CF93C9
:10082000DF931F92CDB7DEB749839E012F5F3F4F05
:1008300041E0C8DF0F90DF91CF910895DF92EF92F2
:10084000FF920F931F93CF93DF931F92CDB7DEB725
:10085000182FF62ED42EE22E209106023091070298
:10086000AE014F5F5F4FA5DF882319F1ED2DF0E05A
:10087000EE19F1093196A1E0B0E09D0102C0220F0E
:10088000331FEA94E2F7215031090E2E01C0220FE6
:100890000A94EAF701C0000FEA95EAF7422F409563
:1008A000898148232023422B49836F2D812FB7DF75
:1008B00001C080E00F90DF91CF911F910F91FF90C9
:1008C000EF90DF900895EF92FF920F931F93CF93D5
:1008D000DF931F92CDB7DEB7182F062FF42EE22E2E
:1008E0002091060230910702AE014F5F5F4F61DF3A
:1008F000EE2059F021E030E0A90102C0440F551F5D
:10090000FA94E2F78981482B0BC021E030E0A9017D
:1009100002C0440F551FFA94E2F74095898148239D
:100920004983602F812F7BDF0F90DF91CF911F9143
:100930000F91FF90EF90089582E08093B00094E0D3
:100940009093B100809370008AEF8093B300089574
:100950000F931F938FB7F8940091390210913A02C8
:1009600020913B0230913C028FBF602F712F822F6C
:10097000932F1F910F9108951F920F920FB60F9210
:1009800011248F939F93AF93BF93809139029091DD
:100990003A02A0913B02B0913C020196A11DB11D0B
:1009A0008093390290933A02A0933B02B0933C02A9
:1009B000BF91AF919F918F910F900FBE0F901F909D
:1009C000189528E6FC0120830895FC0160830895B2
:1009D000462F69E1FC01808122CF0F93062F22E090
:1009E00044E06BE1FC01808129DF0F9108950F93B2
:1009F000062F22E044E06CE1FC0180811FDF0F91B3
:100A000008954F925F926F927F928F929F92AF92D2
:100A1000BF92CF92DF92EF92FF920F931F93CF93EB
:100A2000DF93EC013B014A015901280100910602C4
:100A3000109107029C012F5F3F4F4EE06BE38881CE
:100A400000DE998180E02A81822BF30191838083EB
:100A50009B8180E02C81822BF401918380839D8196
:100A600080E02E81822BF50191838083998580E03F
:100A70002A85822BF201918380839B8580E02C85DF
:100A8000822BF701918380839D8580E02E85822BC8
:100A9000F60191838083DF91CF911F910F91FF9099
:100AA000EF90DF90CF90BF90AF909F908F907F900E
:100AB0006F905F904F9008956F927F928F929F9268
:100AC000AF92BF92CF92DF92EF92FF920F931F935C
:100AD000CF93DF93CDB7DEB73C0193DF41E16AE00E
:100AE0008CE09DDE8FE99CE80197F1F700C00000E3
:100AF000009106021091070293012F5F3F4F46E0DD
:100B000063E08CE09EDDF301918180E02281822B05
:100B1000F50191838083F301938180E02481822B0E
:100B2000F40191838083F301958180E02681822BFB
:100B3000EA89FB8991838083DF91CF911F910F9187
:100B4000FF90EF90DF90CF90BF90AF909F908F90ED
:100B50007F906F900895262F46E06BE6FC01808120
:100B6000B2CE0F93062F23E042E06BE6FC018081BA
:100B700065DE0F910895CF93DF93EC0160E0F1DF24
:100B800060E0CE012ADF60E0CE0131DF60E0CE011F
:100B9000E2DF42E067E3888142DE8FE39CE9019770
:100BA000F1F700C00000DF91CF910895109242024A
:100BB000589A599AE9EBF0E080818E7F808380819A
:100BC0008D7F80838CE08093B80085E48093BC00A7
:100BD00008954132A8F5909142029111FCCF91E025
:100BE000909342029FEF90933D0210924102942F06
:100BF000915090934302282F30E0220F331F216041
:100C00002093440285EE8093BC00809142028130A3
:100C1000E1F380914102841710F440914102442392
:100C200081F0E5E4F2E0A62FB72F242F215030E029
:100C30002A5B3D4F91919D93E217F307D9F701C0CD
:100C400040E0842F0895CF93DF93413208F041C0F4
:100C5000909142029111FCCF92E0909342029FEF5B
:100C600090933D021092410240934302442389F045
:100C7000E62FF72FA5E4B2E0BF016F5F7F4F415031
:100C8000EB01C40FD11DAE0191919D93E417F507BF
:100C9000D9F790E0880F991F8093440285EE8093E6
:100CA000BC00222341F080914202823021F48091E5
:100CB00042028230E1F380913D028F3F61F08091EA
:100CC0003D02803251F080913D02803341F483E057
:100CD00007C081E005C080E003C082E001C084E07D
:100CE000DF91CF9108956132C0F420914202243007
:100CF000B1F460933F026623A1F0E82FF92FA5E637
:100D0000B2E0CF0101966150860F911D21912D9384
:100D1000E817F907D9F780E0089581E0089582E0A7
:100D2000089580E00895882321F085EC8093BC002D
:100D3000089585E88093BC00089585ED8093BC00FC
:100D4000ECEBF0E0808184FDFDCF1092420208952B
:100D500085EC8093BC001092420208951F920F927E
:100D60000FB60F9211240BB60F922F933F934F9310
:100D70005F936F937F938F939F93AF93BF93EF9303
:100D8000FF93E091B900E87FF0E0E93CF10508F05D
:100D9000C5C0EE58FF4FB2C3809144028093BB00A0
:100DA00081E0C1DFBBC0909141028091430298175E
:100DB00078F480914102E82FF0E0EB5BFD4F9081E9
:100DC0009093BB008F5F8093410281E0ACDFA6C0AF
:100DD000B4DFA4C080E280933D02AFDF9FC080E318
:100DE00080933D02AADF9AC088E380933D02B0DF82
:100DF00095C0809141029091BB00E82FF0E0EB5B41
:100E0000FD4F90838F5F80934102909141028091CA
:100E10004302981718F481E086DF80C080E083DF0A
:100E20007DC0809141029091BB00E82FF0E0EB5B28
:100E3000FD4F90838F5F809341027FDF6FC083E01F
:100E40008093420210923E0281E06DDF67C0809184
:100E50003E02803278F480913E029091BB00E82FF0
:100E6000F0E0E757FD4F90838F5F80933E0281E073
:100E70005ADF54C080E057DF51C080913E0280327B
:100E800030F4E0913E02F0E0E757FD4F108255DF6D
:100E900060913E02E0918502F091860270E089E85F
:100EA00092E0199510923E0253DF38C080E03BDF9C
:100EB00035C084E0809342021092400210923F02BB
:100EC000E0918702F0918802199580913F0281118B
:100ED00005C081E080933F0210926502809140023C
:100EE000E82FF0E0EB59FD4F90819093BB008F5FAE
:100EF000809340029091400280913F02981718F42D
:100F000081E011DF0BC080E00EDF08C081E00BDF65
:100F10001092420203C010923D020FDFFF91EF9149
:100F2000BF91AF919F918F917F916F915F914F9101
:100F30003F912F910F900BBE0F900FBE0F901F90FF
:100F400018951F920F920FB60F9211248F9381E084
:100F50008093A9028F910F900FBE0F901F9018954C
:100F60001F920F920FB60F9211240BB60F928F9310
:100F7000EF93FF938091C600E091AB02F0E0E4555F
:100F8000FD4F80838091AB02893019F41092AB023F
:100F900005C08091AB028F5F8093AB02FF91EF9110
:100FA0008F910F900BBE0F900FBE0F901F90189552
:100FB0002091AA029091AB0281E0291380E008956C
:100FC0009091AA028091AB029817D1F3E091AA0206
:100FD000F0E0E455FD4F80819091AA02993019F418
:100FE0001092AA0208959091AA029F5F9093AA027C
:100FF00008959091A9029923E1F31092A902809398
:10100000C60008951092C500BC0180E090E085D133
:1010100020E030E040E851E40ED29B01AC0160E0FA
:1010200074E284E79BE4E5D020E030E040E85FE351
:101030007BD047D16093C40088ED8093C10086E0E7
:101040008093C200519A50981092AB021092AA025B
:1010500081E08093A90208951092DC021092DB02D5
:101060001092B9021092B802A1CD862F413208F039
:1010700040E26DED72E0ADDD1092DC028093DB02A8
:10108000089581E08093B7026093DA021092B9026A
:101090001092B802089521E04091B8026AEB72E024
:1010A0008091DA02D0DD1092B9021092B80210924B
:1010B000B7020895CF93DF931F92CDB7DEB7698350
:1010C0008091B702882389F08091B802803288F439
:1010D0008091B902E82FF0E0E654FD4F60838F5F06
:1010E0008093B9028093B80204C061E0CE010196FA
:1010F000FADD0F90DF91CF9108958091DB029091FE
:10110000DC02891B08959091DC028091DB02981724
:1011100048F4E92FF0E0E352FD4F80819F5F909308
:10112000DC02089580E008955058BB27AA270ED00E
:1011300048C139D130F03ED120F031F49F3F11F455
:101140001EF42EC10EF4E095E7FB24C1E92F4AD12D
:1011500080F3BA17620773078407950718F071F4D4
:101160009EF562C10EF4E0950B2EBA2FA02D0B0157
:10117000B90190010C01CA01A0011124FF27591BDC
:1011800099F0593F50F4503E68F11A16F040A22FE2
:10119000232F342F4427585FF3CF46953795279553
:1011A000A795F0405395C9F77EF41F16BA0B620B52
:1011B000730B840BBAF09150A1F0FF0FBB1F661F99
:1011C000771F881FC2F70EC0BA0F621F731F841FDC
:1011D00048F4879577956795B795F7959E3F08F002
:1011E000B3CF9395880F08F09927EE0F97958795C1
:1011F00008950CD0E6C0DED040F0D5D030F021F418
:101200005F3F19F0C7C0511110C1CAC0EBD098F3AD
:101210009923C9F35523B1F3951B550BBB27AA2777
:1012200062177307840738F09F5F5F4F220F331FE9
:10123000441FAA1FA9F333D00E2E3AF0E0E830D0B5
:1012400091505040E695001CCAF729D0FE2F27D0B8
:10125000660F771F881FBB1F261737074807AB0786
:10126000B0E809F0BB0B802DBF01FF2793585F4FFB
:101270002AF09E3F510568F08DC0D7C05F3FECF368
:10128000983EDCF3869577956795B795F7959F5FC0
:10129000C9F7880F911D9695879597F90895E1E014
:1012A000660F771F881FBB1F621773078407BA0773
:1012B00020F0621B730B840BBA0BEE1F88F7E095CE
:1012C000089598D088F09F5790F0B92F9927B7517B
:1012D000A0F0D1F0660F771F881F991F1AF0BA95FA
:1012E000C9F712C0B13081F09FD0B1E008959CC021
:1012F000672F782F8827B85F39F0B93FCCF38695F0
:1013000077956795B395D9F73EF49095809570954C
:1013100061957F4F8F4F9F4F0895E89409C097FBC9
:101320003EF490958095709561957F4F8F4F9F4FBC
:101330009923A9F0F92F96E9BB279395F695879500
:1013400077956795B795F111F8CFFAF4BB0F11F4C3
:1013500060FF1BC06F5F7F4F8F4F9F4F16C088236A
:1013600011F096E911C0772321F09EE8872F762FA0
:1013700005C0662371F096E8862F70E060E02AF0E1
:101380009A95660F771F881FDAF7880F96958795CD
:1013900097F9089597F99F6780E870E060E00895F5
:1013A0009FEF80EC089500240A941616170618067D
:1013B0000906089500240A94121613061406050659
:1013C0000895092E0394000C11F4882352F0BB0FEA
:1013D00040F4BF2B11F460FF04C06F5F7F4F8F4F4D
:1013E0009F4F089557FD9058440F551F59F05F3F88
:1013F00071F04795880F97FB991F61F09F3F79F037
:1014000087950895121613061406551FF2CF4695B8
:10141000F1DF08C0161617061806991FF1CF86953A
:101420007105610508940895E894BB27662777271E
:10143000CB0197F908950BD0C4CFB5DF28F0BADF00
:1014400018F0952309F0A6CFABCF1124EECFCADF59
:10145000A0F3959FD1F3950F50E0551F629FF001C7
:10146000729FBB27F00DB11D639FAA27F00DB11D20
:10147000AA1F649F6627B00DA11D661F829F2227A9
:10148000B00DA11D621F739FB00DA11D621F839F30
:10149000A00D611D221F749F3327A00D611D231F06
:1014A000849F600D211D822F762F6A2F11249F5754
:1014B00050408AF0E1F088234AF0EE0FFF1FBB1F77
:1014C000661F771F881F91505040A9F79E3F510516
:1014D00070F060CFAACF5F3FECF3983EDCF38695C7
:1014E00077956795B795F795E7959F5FC1F7FE2BC1
:1014F000880F911D9695879597F90895EE0FFF1F18
:101500000590F491E02D19940790F691E02D19942F
:04151000F894FFCF7D
:081514000000FD022000E803C5
:00000001FF
